{
  "abi": [
    {
      "inputs": [
        {
          "internalType": "address",
          "name": "_borrower",
          "type": "address"
        },
        {
          "internalType": "uint256",
          "name": "_principal",
          "type": "uint256"
        },
        {
          "internalType": "uint256",
          "name": "_length",
          "type": "uint256"
        },
        {
          "internalType": "uint256",
          "name": "_rate",
          "type": "uint256"
        }
      ],
      "stateMutability": "nonpayable",
      "type": "constructor"
    },
    {
      "anonymous": false,
      "inputs": [
        {
          "indexed": true,
          "internalType": "address",
          "name": "owner",
          "type": "address"
        },
        {
          "indexed": true,
          "internalType": "address",
          "name": "spender",
          "type": "address"
        },
        {
          "indexed": false,
          "internalType": "uint256",
          "name": "value",
          "type": "uint256"
        }
      ],
      "name": "Approval",
      "type": "event"
    },
    {
      "anonymous": false,
      "inputs": [
        {
          "indexed": true,
          "internalType": "address",
          "name": "previousOwner",
          "type": "address"
        },
        {
          "indexed": true,
          "internalType": "address",
          "name": "newOwner",
          "type": "address"
        }
      ],
      "name": "OwnershipTransferred",
      "type": "event"
    },
    {
      "anonymous": false,
      "inputs": [
        {
          "indexed": true,
          "internalType": "address",
          "name": "from",
          "type": "address"
        },
        {
          "indexed": true,
          "internalType": "address",
          "name": "to",
          "type": "address"
        },
        {
          "indexed": false,
          "internalType": "uint256",
          "name": "value",
          "type": "uint256"
        }
      ],
      "name": "Transfer",
      "type": "event"
    },
    {
      "inputs": [
        {
          "internalType": "address",
          "name": "owner",
          "type": "address"
        },
        {
          "internalType": "address",
          "name": "spender",
          "type": "address"
        }
      ],
      "name": "allowance",
      "outputs": [
        {
          "internalType": "uint256",
          "name": "",
          "type": "uint256"
        }
      ],
      "stateMutability": "view",
      "type": "function"
    },
    {
      "inputs": [
        {
          "internalType": "address",
          "name": "spender",
          "type": "address"
        },
        {
          "internalType": "uint256",
          "name": "amount",
          "type": "uint256"
        }
      ],
      "name": "approve",
      "outputs": [
        {
          "internalType": "bool",
          "name": "",
          "type": "bool"
        }
      ],
      "stateMutability": "nonpayable",
      "type": "function"
    },
    {
      "inputs": [],
      "name": "approve",
      "outputs": [],
      "stateMutability": "nonpayable",
      "type": "function"
    },
    {
      "inputs": [],
      "name": "approved",
      "outputs": [
        {
          "internalType": "bool",
          "name": "",
          "type": "bool"
        }
      ],
      "stateMutability": "view",
      "type": "function"
    },
    {
      "inputs": [],
      "name": "balance",
      "outputs": [
        {
          "internalType": "uint256",
          "name": "",
          "type": "uint256"
        }
      ],
      "stateMutability": "view",
      "type": "function"
    },
    {
      "inputs": [
        {
          "internalType": "address",
          "name": "account",
          "type": "address"
        }
      ],
      "name": "balanceOf",
      "outputs": [
        {
          "internalType": "uint256",
          "name": "",
          "type": "uint256"
        }
      ],
      "stateMutability": "view",
      "type": "function"
    },
    {
      "inputs": [],
      "name": "borrow",
      "outputs": [],
      "stateMutability": "nonpayable",
      "type": "function"
    },
    {
      "inputs": [],
      "name": "borrower",
      "outputs": [
        {
          "internalType": "address",
          "name": "",
          "type": "address"
        }
      ],
      "stateMutability": "view",
      "type": "function"
    },
    {
      "inputs": [],
      "name": "claimOwnership",
      "outputs": [],
      "stateMutability": "nonpayable",
      "type": "function"
    },
    {
      "inputs": [],
      "name": "decimals",
      "outputs": [
        {
          "internalType": "uint8",
          "name": "",
          "type": "uint8"
        }
      ],
      "stateMutability": "view",
      "type": "function"
    },
    {
      "inputs": [
        {
          "internalType": "address",
          "name": "spender",
          "type": "address"
        },
        {
          "internalType": "uint256",
          "name": "subtractedValue",
          "type": "uint256"
        }
      ],
      "name": "decreaseAllowance",
      "outputs": [
        {
          "internalType": "bool",
          "name": "",
          "type": "bool"
        }
      ],
      "stateMutability": "nonpayable",
      "type": "function"
    },
    {
      "inputs": [
        {
          "internalType": "uint256",
          "name": "amount",
          "type": "uint256"
        }
      ],
      "name": "deposit",
      "outputs": [],
      "stateMutability": "nonpayable",
      "type": "function"
    },
    {
      "inputs": [],
      "name": "expiry",
      "outputs": [
        {
          "internalType": "uint256",
          "name": "",
          "type": "uint256"
        }
      ],
      "stateMutability": "view",
      "type": "function"
    },
    {
      "inputs": [
        {
          "internalType": "address",
          "name": "spender",
          "type": "address"
        },
        {
          "internalType": "uint256",
          "name": "addedValue",
          "type": "uint256"
        }
      ],
      "name": "increaseAllowance",
      "outputs": [
        {
          "internalType": "bool",
          "name": "",
          "type": "bool"
        }
      ],
      "stateMutability": "nonpayable",
      "type": "function"
    },
    {
      "inputs": [],
      "name": "length",
      "outputs": [
        {
          "internalType": "uint256",
          "name": "",
          "type": "uint256"
        }
      ],
      "stateMutability": "view",
      "type": "function"
    },
    {
      "inputs": [],
      "name": "name",
      "outputs": [
        {
          "internalType": "string",
          "name": "",
          "type": "string"
        }
      ],
      "stateMutability": "view",
      "type": "function"
    },
    {
      "inputs": [],
      "name": "owner",
      "outputs": [
        {
          "internalType": "address",
          "name": "",
          "type": "address"
        }
      ],
      "stateMutability": "view",
      "type": "function"
    },
    {
      "inputs": [],
      "name": "pay",
      "outputs": [],
      "stateMutability": "nonpayable",
      "type": "function"
    },
    {
      "inputs": [],
      "name": "pendingOwner",
      "outputs": [
        {
          "internalType": "address",
          "name": "",
          "type": "address"
        }
      ],
      "stateMutability": "view",
      "type": "function"
    },
    {
      "inputs": [],
      "name": "principal",
      "outputs": [
        {
          "internalType": "uint256",
          "name": "",
          "type": "uint256"
        }
      ],
      "stateMutability": "view",
      "type": "function"
    },
    {
      "inputs": [],
      "name": "rate",
      "outputs": [
        {
          "internalType": "uint256",
          "name": "",
          "type": "uint256"
        }
      ],
      "stateMutability": "view",
      "type": "function"
    },
    {
      "inputs": [
        {
          "internalType": "uint256",
          "name": "amount",
          "type": "uint256"
        }
      ],
      "name": "redeem",
      "outputs": [],
      "stateMutability": "nonpayable",
      "type": "function"
    },
    {
      "inputs": [],
      "name": "symbol",
      "outputs": [
        {
          "internalType": "string",
          "name": "",
          "type": "string"
        }
      ],
      "stateMutability": "view",
      "type": "function"
    },
    {
      "inputs": [],
      "name": "token",
      "outputs": [
        {
          "internalType": "contract IERC20",
          "name": "",
          "type": "address"
        }
      ],
      "stateMutability": "view",
      "type": "function"
    },
    {
      "inputs": [],
      "name": "totalSupply",
      "outputs": [
        {
          "internalType": "uint256",
          "name": "",
          "type": "uint256"
        }
      ],
      "stateMutability": "view",
      "type": "function"
    },
    {
      "inputs": [
        {
          "internalType": "address",
          "name": "recipient",
          "type": "address"
        },
        {
          "internalType": "uint256",
          "name": "amount",
          "type": "uint256"
        }
      ],
      "name": "transfer",
      "outputs": [
        {
          "internalType": "bool",
          "name": "",
          "type": "bool"
        }
      ],
      "stateMutability": "nonpayable",
      "type": "function"
    },
    {
      "inputs": [
        {
          "internalType": "address",
          "name": "sender",
          "type": "address"
        },
        {
          "internalType": "address",
          "name": "recipient",
          "type": "address"
        },
        {
          "internalType": "uint256",
          "name": "amount",
          "type": "uint256"
        }
      ],
      "name": "transferFrom",
      "outputs": [
        {
          "internalType": "bool",
          "name": "",
          "type": "bool"
        }
      ],
      "stateMutability": "nonpayable",
      "type": "function"
    },
    {
      "inputs": [
        {
          "internalType": "address",
          "name": "newOwner",
          "type": "address"
        }
      ],
      "name": "transferOwnership",
      "outputs": [],
      "stateMutability": "nonpayable",
      "type": "function"
    },
    {
      "inputs": [],
      "name": "value",
      "outputs": [
        {
          "internalType": "uint256",
          "name": "",
          "type": "uint256"
        }
      ],
      "stateMutability": "view",
      "type": "function"
    }
  ],
  "evm": {
    "bytecode": {
      "linkReferences": {},
      "object": "60806040523480156200001157600080fd5b5060405162001d8538038062001d85833981810160405260808110156200003757600080fd5b508051602080830151604080850151606090950151600780546001600160a01b0387166001600160a01b0319918216179091556008849055600b879055600a8281556006805490921633179091556005805460ff191660121790558251808401909352808352692637b0b7102a37b5b2b760b11b92909401918252939491939192620000c691600391620000fd565b50604080518082019091526004808252632627a0a760e11b6020909201918252620000f29181620000fd565b5050505050620001a2565b828054600181600116156101000203166002900490600052602060002090601f016020900481019282601f106200014057805160ff191683800117855562000170565b8280016001018555821562000170579182015b828111156200017057825182559160200191906001019062000153565b506200017e92915062000182565b5090565b6200019f91905b808211156200017e576000815560010162000189565b90565b611bd380620001b26000396000f3fe608060405234801561001057600080fd5b50600436106101cf5760003560e01c80637df1f1b911610104578063ba5d3078116100a2578063e30c397811610071578063e30c3978146104ff578063e68d356914610507578063f2fde38b1461050f578063fc0c546a14610542576101cf565b8063ba5d307814610497578063db006a751461049f578063dd62ed3e146104bc578063e184c9be146104f7576101cf565b8063a457c2d7116100de578063a457c2d714610400578063a9059cbb14610439578063b69ef8a814610472578063b6b55f251461047a576101cf565b80637df1f1b9146103bf5780638da5cb5b146103f057806395d89b41146103f8576101cf565b806323b872dd11610171578063395093511161014b57806339509351146103435780633fa4f2451461037c5780634e71e0c81461038457806370a082311461038c576101cf565b806323b872dd146102da5780632c4e722e1461031d578063313ce56714610325576101cf565b806318160ddd116101ad57806318160ddd146102a857806319d40b08146102c25780631b9265b8146102ca5780631f7b6d32146102d2576101cf565b806306fdde03146101d4578063095ea7b31461025157806312424e3f1461029e575b600080fd5b6101dc61054a565b6040805160208082528351818301528351919283929083019185019080838360005b838110156102165781810151838201526020016101fe565b50505050905090810190601f1680156102435780820380516001836020036101000a031916815260200191505b509250505060405180910390f35b61028a6004803603604081101561026757600080fd5b5073ffffffffffffffffffffffffffffffffffffffff81351690602001356105fe565b604080519115158252519081900360200190f35b6102a661061c565b005b6102b06106df565b60408051918252519081900360200190f35b61028a6106e5565b6102a66106ee565b6102b0610874565b61028a600480360360608110156102f057600080fd5b5073ffffffffffffffffffffffffffffffffffffffff81358116916020810135909116906040013561087a565b6102b0610921565b61032d610927565b6040805160ff9092168252519081900360200190f35b61028a6004803603604081101561035957600080fd5b5073ffffffffffffffffffffffffffffffffffffffff8135169060200135610930565b6102b0610991565b6102a66109a3565b6102b0600480360360208110156103a257600080fd5b503573ffffffffffffffffffffffffffffffffffffffff16610a8b565b6103c7610ab3565b6040805173ffffffffffffffffffffffffffffffffffffffff9092168252519081900360200190f35b6103c7610acf565b6101dc610aeb565b61028a6004803603604081101561041657600080fd5b5073ffffffffffffffffffffffffffffffffffffffff8135169060200135610b6a565b61028a6004803603604081101561044f57600080fd5b5073ffffffffffffffffffffffffffffffffffffffff8135169060200135610be5565b6102b0610bf9565b6102a66004803603602081101561049057600080fd5b5035610ca0565b6102b0610e0e565b6102a6600480360360208110156104b557600080fd5b5035610e14565b6102b0600480360360408110156104d257600080fd5b5073ffffffffffffffffffffffffffffffffffffffff81358116916020013516610fc5565b6102b0610ffd565b6103c7611003565b6102a6611024565b6102a66004803603602081101561052557600080fd5b503573ffffffffffffffffffffffffffffffffffffffff16611134565b6103c76111a4565b60038054604080516020601f60027fffffffffffffffffffffffffffffffffffffffffffffffffffffffffffffffff6101006001881615020190951694909404938401819004810282018101909252828152606093909290918301828280156105f45780601f106105c9576101008083540402835291602001916105f4565b820191906000526020600020905b8154815290600101906020018083116105d757829003601f168201915b5050505050905090565b600061061261060b6111c5565b84846111c9565b5060015b92915050565b60065473ffffffffffffffffffffffffffffffffffffffff16331461064057600080fd5b600c5460ff16156106b257604080517f08c379a000000000000000000000000000000000000000000000000000000000815260206004820152601d60248201527f63616e6e6f7420617070726f76653a206c6f616e20617070726f766564000000604482015290519081900360640190fd5b600c80547fffffffffffffffffffffffffffffffffffffffffffffffffffffffffffffff00166001179055565b60025490565b600c5460ff1681565b600c5460ff1661075f57604080517f08c379a000000000000000000000000000000000000000000000000000000000815260206004820152601960248201527f63616e6e6f74207061793a206c6f616e20617070726f76656400000000000000604482015290519081900360640190fd5b600c60019054906101000a900473ffffffffffffffffffffffffffffffffffffffff1673ffffffffffffffffffffffffffffffffffffffff166323b872dd33306107aa600854611310565b6040518463ffffffff1660e01b8152600401808473ffffffffffffffffffffffffffffffffffffffff1673ffffffffffffffffffffffffffffffffffffffff1681526020018373ffffffffffffffffffffffffffffffffffffffff1673ffffffffffffffffffffffffffffffffffffffff1681526020018281526020019350505050602060405180830381600087803b15801561084657600080fd5b505af115801561085a573d6000803e3d6000fd5b505050506040513d602081101561087057600080fd5b5050565b60095481565b600061088784848461134f565b610917846108936111c5565b61091285604051806060016040528060288152602001611ae76028913973ffffffffffffffffffffffffffffffffffffffff8a166000908152600160205260408120906108de6111c5565b73ffffffffffffffffffffffffffffffffffffffff168152602081019190915260400160002054919063ffffffff61152016565b6111c9565b5060019392505050565b600a5481565b60055460ff1690565b600061061261093d6111c5565b84610912856001600061094e6111c5565b73ffffffffffffffffffffffffffffffffffffffff908116825260208083019390935260409182016000908120918c16815292529020549063ffffffff6115d116565b600061099e600854611310565b905090565b600554610100900473ffffffffffffffffffffffffffffffffffffffff1633146109cc57600080fd5b60055460065460405161010090920473ffffffffffffffffffffffffffffffffffffffff908116929116907f8be0079c531659141344cd1fd0a4f28419497f9722a3daafe3b4186f6b6457e090600090a360058054600680547fffffffffffffffffffffffff00000000000000000000000000000000000000001673ffffffffffffffffffffffffffffffffffffffff6101008404161790557fffffffffffffffffffffff0000000000000000000000000000000000000000ff169055565b73ffffffffffffffffffffffffffffffffffffffff1660009081526020819052604090205490565b60075473ffffffffffffffffffffffffffffffffffffffff1681565b60065473ffffffffffffffffffffffffffffffffffffffff1681565b60048054604080516020601f60027fffffffffffffffffffffffffffffffffffffffffffffffffffffffffffffffff6101006001881615020190951694909404938401819004810282018101909252828152606093909290918301828280156105f45780601f106105c9576101008083540402835291602001916105f4565b6000610612610b776111c5565b8461091285604051806060016040528060258152602001611b796025913960016000610ba16111c5565b73ffffffffffffffffffffffffffffffffffffffff908116825260208083019390935260409182016000908120918d1681529252902054919063ffffffff61152016565b6000610612610bf26111c5565b848461134f565b600c54604080517f70a082310000000000000000000000000000000000000000000000000000000081523060048201529051600092610100900473ffffffffffffffffffffffffffffffffffffffff16916370a08231916024808301926020929190829003018186803b158015610c6f57600080fd5b505afa158015610c83573d6000803e3d6000fd5b505050506040513d6020811015610c9957600080fd5b5051905090565b600c5460ff1615610d1257604080517f08c379a000000000000000000000000000000000000000000000000000000000815260206004820152601d60248201527f63616e6e6f74206465706f7369743a206c6f616e20617070726f766564000000604482015290519081900360640190fd5b600854610d2d82610d21610bf9565b9063ffffffff6115d116565b1115610d5057610d4d610d3e610bf9565b6008549063ffffffff61164c16565b90505b600c54604080517f23b872dd00000000000000000000000000000000000000000000000000000000815233600482015230602482015260448101849052905161010090920473ffffffffffffffffffffffffffffffffffffffff16916323b872dd916064808201926020929091908290030181600087803b158015610dd457600080fd5b505af1158015610de8573d6000803e3d6000fd5b505050506040513d6020811015610dfe57600080fd5b50610e0b9050338261168e565b50565b60085481565b600b54421015610e8557604080517f08c379a000000000000000000000000000000000000000000000000000000000815260206004820152601c60248201527f63616e6e6f742072656465656d3a206265666f72652065787069727900000000604482015290519081900360640190fd5b600c5460ff16610ef657604080517f08c379a000000000000000000000000000000000000000000000000000000000815260206004820181905260248201527f63616e6e6f742072656465656d3a206c6f616e206e6f7420617070726f766564604482015290519081900360640190fd5b610f0033826117bf565b600c54610100900473ffffffffffffffffffffffffffffffffffffffff1663a9059cbb33610f2d84611310565b6040518363ffffffff1660e01b8152600401808373ffffffffffffffffffffffffffffffffffffffff1673ffffffffffffffffffffffffffffffffffffffff16815260200182815260200192505050602060405180830381600087803b158015610f9657600080fd5b505af1158015610faa573d6000803e3d6000fd5b505050506040513d6020811015610fc057600080fd5b505050565b73ffffffffffffffffffffffffffffffffffffffff918216600090815260016020908152604080832093909416825291909152205490565b600b5481565b600554610100900473ffffffffffffffffffffffffffffffffffffffff1681565b60075473ffffffffffffffffffffffffffffffffffffffff1633146110aa57604080517f08c379a000000000000000000000000000000000000000000000000000000000815260206004820152600d60248201527f6f6e6c7920626f72726f77657200000000000000000000000000000000000000604482015290519081900360640190fd5b600c5460ff1661111b57604080517f08c379a000000000000000000000000000000000000000000000000000000000815260206004820152601a60248201527f6d75737420626520617070726f76656420746f20626f72726f77000000000000604482015290519081900360640190fd5b60095461112f90429063ffffffff6115d116565b600b55565b60065473ffffffffffffffffffffffffffffffffffffffff16331461115857600080fd5b6005805473ffffffffffffffffffffffffffffffffffffffff909216610100027fffffffffffffffffffffff0000000000000000000000000000000000000000ff909216919091179055565b600c54610100900473ffffffffffffffffffffffffffffffffffffffff1681565b3390565b73ffffffffffffffffffffffffffffffffffffffff8316611235576040517f08c379a0000000000000000000000000000000000000000000000000000000008152600401808060200182810382526024815260200180611b556024913960400191505060405180910390fd5b73ffffffffffffffffffffffffffffffffffffffff82166112a1576040517f08c379a0000000000000000000000000000000000000000000000000000000008152600401808060200182810382526022815260200180611a7e6022913960400191505060405180910390fd5b73ffffffffffffffffffffffffffffffffffffffff808416600081815260016020908152604080832094871680845294825291829020859055815185815291517f8c5be1e5ebec7d5bd14f71427d1e84f3dd0314c0f7b2291e5b200ac8c7c3b9259281900390910190a3505050565b6000610616611342670de0b6b3a7640000611336600a548661190990919063ffffffff16565b9063ffffffff61197c16565b839063ffffffff6115d116565b73ffffffffffffffffffffffffffffffffffffffff83166113bb576040517f08c379a0000000000000000000000000000000000000000000000000000000008152600401808060200182810382526025815260200180611b306025913960400191505060405180910390fd5b73ffffffffffffffffffffffffffffffffffffffff8216611427576040517f08c379a0000000000000000000000000000000000000000000000000000000008152600401808060200182810382526023815260200180611a396023913960400191505060405180910390fd5b61147781604051806060016040528060268152602001611aa06026913973ffffffffffffffffffffffffffffffffffffffff8616600090815260208190526040902054919063ffffffff61152016565b73ffffffffffffffffffffffffffffffffffffffff80851660009081526020819052604080822093909355908416815220546114b9908263ffffffff6115d116565b73ffffffffffffffffffffffffffffffffffffffff8084166000818152602081815260409182902094909455805185815290519193928716927fddf252ad1be2c89b69c2b068fc378daa952ba7f163c4a11628f55a4df523b3ef92918290030190a3505050565b600081848411156115c9576040517f08c379a00000000000000000000000000000000000000000000000000000000081526004018080602001828103825283818151815260200191508051906020019080838360005b8381101561158e578181015183820152602001611576565b50505050905090810190601f1680156115bb5780820380516001836020036101000a031916815260200191505b509250505060405180910390fd5b505050900390565b60008282018381101561164557604080517f08c379a000000000000000000000000000000000000000000000000000000000815260206004820152601b60248201527f536166654d6174683a206164646974696f6e206f766572666c6f770000000000604482015290519081900360640190fd5b9392505050565b600061164583836040518060400160405280601e81526020017f536166654d6174683a207375627472616374696f6e206f766572666c6f770000815250611520565b73ffffffffffffffffffffffffffffffffffffffff821661171057604080517f08c379a000000000000000000000000000000000000000000000000000000000815260206004820152601f60248201527f45524332303a206d696e7420746f20746865207a65726f206164647265737300604482015290519081900360640190fd5b600254611723908263ffffffff6115d116565b60025573ffffffffffffffffffffffffffffffffffffffff821660009081526020819052604090205461175c908263ffffffff6115d116565b73ffffffffffffffffffffffffffffffffffffffff83166000818152602081815260408083209490945583518581529351929391927fddf252ad1be2c89b69c2b068fc378daa952ba7f163c4a11628f55a4df523b3ef9281900390910190a35050565b73ffffffffffffffffffffffffffffffffffffffff821661182b576040517f08c379a0000000000000000000000000000000000000000000000000000000008152600401808060200182810382526021815260200180611b0f6021913960400191505060405180910390fd5b61187b81604051806060016040528060228152602001611a5c6022913973ffffffffffffffffffffffffffffffffffffffff8516600090815260208190526040902054919063ffffffff61152016565b73ffffffffffffffffffffffffffffffffffffffff83166000908152602081905260409020556002546118b4908263ffffffff61164c16565b60025560408051828152905160009173ffffffffffffffffffffffffffffffffffffffff8516917fddf252ad1be2c89b69c2b068fc378daa952ba7f163c4a11628f55a4df523b3ef9181900360200190a35050565b60008261191857506000610616565b8282028284828161192557fe5b0414611645576040517f08c379a0000000000000000000000000000000000000000000000000000000008152600401808060200182810382526021815260200180611ac66021913960400191505060405180910390fd5b600061164583836040518060400160405280601a81526020017f536166654d6174683a206469766973696f6e206279207a65726f00000000000081525060008183611a22576040517f08c379a000000000000000000000000000000000000000000000000000000000815260206004820181815283516024840152835190928392604490910191908501908083836000831561158e578181015183820152602001611576565b506000838581611a2e57fe5b049594505050505056fe45524332303a207472616e7366657220746f20746865207a65726f206164647265737345524332303a206275726e20616d6f756e7420657863656564732062616c616e636545524332303a20617070726f766520746f20746865207a65726f206164647265737345524332303a207472616e7366657220616d6f756e7420657863656564732062616c616e6365536166654d6174683a206d756c7469706c69636174696f6e206f766572666c6f7745524332303a207472616e7366657220616d6f756e74206578636565647320616c6c6f77616e636545524332303a206275726e2066726f6d20746865207a65726f206164647265737345524332303a207472616e736665722066726f6d20746865207a65726f206164647265737345524332303a20617070726f76652066726f6d20746865207a65726f206164647265737345524332303a2064656372656173656420616c6c6f77616e63652062656c6f77207a65726fa264697066735822122074cf4819e087289f376632a80fc22a832c7957be708887dbec18eb9dc8a9f86b64736f6c634300060a0033",
      "opcodes": "PUSH1 0x80 PUSH1 0x40 MSTORE CALLVALUE DUP1 ISZERO PUSH3 0x11 JUMPI PUSH1 0x0 DUP1 REVERT JUMPDEST POP PUSH1 0x40 MLOAD PUSH3 0x1D85 CODESIZE SUB DUP1 PUSH3 0x1D85 DUP4 CODECOPY DUP2 DUP2 ADD PUSH1 0x40 MSTORE PUSH1 0x80 DUP2 LT ISZERO PUSH3 0x37 JUMPI PUSH1 0x0 DUP1 REVERT JUMPDEST POP DUP1 MLOAD PUSH1 0x20 DUP1 DUP4 ADD MLOAD PUSH1 0x40 DUP1 DUP6 ADD MLOAD PUSH1 0x60 SWAP1 SWAP6 ADD MLOAD PUSH1 0x7 DUP1 SLOAD PUSH1 0x1 PUSH1 0x1 PUSH1 0xA0 SHL SUB DUP8 AND PUSH1 0x1 PUSH1 0x1 PUSH1 0xA0 SHL SUB NOT SWAP2 DUP3 AND OR SWAP1 SWAP2 SSTORE PUSH1 0x8 DUP5 SWAP1 SSTORE PUSH1 0xB DUP8 SWAP1 SSTORE PUSH1 0xA DUP3 DUP2 SSTORE PUSH1 0x6 DUP1 SLOAD SWAP1 SWAP3 AND CALLER OR SWAP1 SWAP2 SSTORE PUSH1 0x5 DUP1 SLOAD PUSH1 0xFF NOT AND PUSH1 0x12 OR SWAP1 SSTORE DUP3 MLOAD DUP1 DUP5 ADD SWAP1 SWAP4 MSTORE DUP1 DUP4 MSTORE PUSH10 0x2637B0B7102A37B5B2B7 PUSH1 0xB1 SHL SWAP3 SWAP1 SWAP5 ADD SWAP2 DUP3 MSTORE SWAP4 SWAP5 SWAP2 SWAP4 SWAP2 SWAP3 PUSH3 0xC6 SWAP2 PUSH1 0x3 SWAP2 PUSH3 0xFD JUMP JUMPDEST POP PUSH1 0x40 DUP1 MLOAD DUP1 DUP3 ADD SWAP1 SWAP2 MSTORE PUSH1 0x4 DUP1 DUP3 MSTORE PUSH4 0x2627A0A7 PUSH1 0xE1 SHL PUSH1 0x20 SWAP1 SWAP3 ADD SWAP2 DUP3 MSTORE PUSH3 0xF2 SWAP2 DUP2 PUSH3 0xFD JUMP JUMPDEST POP POP POP POP POP PUSH3 0x1A2 JUMP JUMPDEST DUP3 DUP1 SLOAD PUSH1 0x1 DUP2 PUSH1 0x1 AND ISZERO PUSH2 0x100 MUL SUB AND PUSH1 0x2 SWAP1 DIV SWAP1 PUSH1 0x0 MSTORE PUSH1 0x20 PUSH1 0x0 KECCAK256 SWAP1 PUSH1 0x1F ADD PUSH1 0x20 SWAP1 DIV DUP2 ADD SWAP3 DUP3 PUSH1 0x1F LT PUSH3 0x140 JUMPI DUP1 MLOAD PUSH1 0xFF NOT AND DUP4 DUP1 ADD OR DUP6 SSTORE PUSH3 0x170 JUMP JUMPDEST DUP3 DUP1 ADD PUSH1 0x1 ADD DUP6 SSTORE DUP3 ISZERO PUSH3 0x170 JUMPI SWAP2 DUP3 ADD JUMPDEST DUP3 DUP2 GT ISZERO PUSH3 0x170 JUMPI DUP3 MLOAD DUP3 SSTORE SWAP2 PUSH1 0x20 ADD SWAP2 SWAP1 PUSH1 0x1 ADD SWAP1 PUSH3 0x153 JUMP JUMPDEST POP PUSH3 0x17E SWAP3 SWAP2 POP PUSH3 0x182 JUMP JUMPDEST POP SWAP1 JUMP JUMPDEST PUSH3 0x19F SWAP2 SWAP1 JUMPDEST DUP1 DUP3 GT ISZERO PUSH3 0x17E JUMPI PUSH1 0x0 DUP2 SSTORE PUSH1 0x1 ADD PUSH3 0x189 JUMP JUMPDEST SWAP1 JUMP JUMPDEST PUSH2 0x1BD3 DUP1 PUSH3 0x1B2 PUSH1 0x0 CODECOPY PUSH1 0x0 RETURN INVALID PUSH1 0x80 PUSH1 0x40 MSTORE CALLVALUE DUP1 ISZERO PUSH2 0x10 JUMPI PUSH1 0x0 DUP1 REVERT JUMPDEST POP PUSH1 0x4 CALLDATASIZE LT PUSH2 0x1CF JUMPI PUSH1 0x0 CALLDATALOAD PUSH1 0xE0 SHR DUP1 PUSH4 0x7DF1F1B9 GT PUSH2 0x104 JUMPI DUP1 PUSH4 0xBA5D3078 GT PUSH2 0xA2 JUMPI DUP1 PUSH4 0xE30C3978 GT PUSH2 0x71 JUMPI DUP1 PUSH4 0xE30C3978 EQ PUSH2 0x4FF JUMPI DUP1 PUSH4 0xE68D3569 EQ PUSH2 0x507 JUMPI DUP1 PUSH4 0xF2FDE38B EQ PUSH2 0x50F JUMPI DUP1 PUSH4 0xFC0C546A EQ PUSH2 0x542 JUMPI PUSH2 0x1CF JUMP JUMPDEST DUP1 PUSH4 0xBA5D3078 EQ PUSH2 0x497 JUMPI DUP1 PUSH4 0xDB006A75 EQ PUSH2 0x49F JUMPI DUP1 PUSH4 0xDD62ED3E EQ PUSH2 0x4BC JUMPI DUP1 PUSH4 0xE184C9BE EQ PUSH2 0x4F7 JUMPI PUSH2 0x1CF JUMP JUMPDEST DUP1 PUSH4 0xA457C2D7 GT PUSH2 0xDE JUMPI DUP1 PUSH4 0xA457C2D7 EQ PUSH2 0x400 JUMPI DUP1 PUSH4 0xA9059CBB EQ PUSH2 0x439 JUMPI DUP1 PUSH4 0xB69EF8A8 EQ PUSH2 0x472 JUMPI DUP1 PUSH4 0xB6B55F25 EQ PUSH2 0x47A JUMPI PUSH2 0x1CF JUMP JUMPDEST DUP1 PUSH4 0x7DF1F1B9 EQ PUSH2 0x3BF JUMPI DUP1 PUSH4 0x8DA5CB5B EQ PUSH2 0x3F0 JUMPI DUP1 PUSH4 0x95D89B41 EQ PUSH2 0x3F8 JUMPI PUSH2 0x1CF JUMP JUMPDEST DUP1 PUSH4 0x23B872DD GT PUSH2 0x171 JUMPI DUP1 PUSH4 0x39509351 GT PUSH2 0x14B JUMPI DUP1 PUSH4 0x39509351 EQ PUSH2 0x343 JUMPI DUP1 PUSH4 0x3FA4F245 EQ PUSH2 0x37C JUMPI DUP1 PUSH4 0x4E71E0C8 EQ PUSH2 0x384 JUMPI DUP1 PUSH4 0x70A08231 EQ PUSH2 0x38C JUMPI PUSH2 0x1CF JUMP JUMPDEST DUP1 PUSH4 0x23B872DD EQ PUSH2 0x2DA JUMPI DUP1 PUSH4 0x2C4E722E EQ PUSH2 0x31D JUMPI DUP1 PUSH4 0x313CE567 EQ PUSH2 0x325 JUMPI PUSH2 0x1CF JUMP JUMPDEST DUP1 PUSH4 0x18160DDD GT PUSH2 0x1AD JUMPI DUP1 PUSH4 0x18160DDD EQ PUSH2 0x2A8 JUMPI DUP1 PUSH4 0x19D40B08 EQ PUSH2 0x2C2 JUMPI DUP1 PUSH4 0x1B9265B8 EQ PUSH2 0x2CA JUMPI DUP1 PUSH4 0x1F7B6D32 EQ PUSH2 0x2D2 JUMPI PUSH2 0x1CF JUMP JUMPDEST DUP1 PUSH4 0x6FDDE03 EQ PUSH2 0x1D4 JUMPI DUP1 PUSH4 0x95EA7B3 EQ PUSH2 0x251 JUMPI DUP1 PUSH4 0x12424E3F EQ PUSH2 0x29E JUMPI JUMPDEST PUSH1 0x0 DUP1 REVERT JUMPDEST PUSH2 0x1DC PUSH2 0x54A JUMP JUMPDEST PUSH1 0x40 DUP1 MLOAD PUSH1 0x20 DUP1 DUP3 MSTORE DUP4 MLOAD DUP2 DUP4 ADD MSTORE DUP4 MLOAD SWAP2 SWAP3 DUP4 SWAP3 SWAP1 DUP4 ADD SWAP2 DUP6 ADD SWAP1 DUP1 DUP4 DUP4 PUSH1 0x0 JUMPDEST DUP4 DUP2 LT ISZERO PUSH2 0x216 JUMPI DUP2 DUP2 ADD MLOAD DUP4 DUP3 ADD MSTORE PUSH1 0x20 ADD PUSH2 0x1FE JUMP JUMPDEST POP POP POP POP SWAP1 POP SWAP1 DUP2 ADD SWAP1 PUSH1 0x1F AND DUP1 ISZERO PUSH2 0x243 JUMPI DUP1 DUP3 SUB DUP1 MLOAD PUSH1 0x1 DUP4 PUSH1 0x20 SUB PUSH2 0x100 EXP SUB NOT AND DUP2 MSTORE PUSH1 0x20 ADD SWAP2 POP JUMPDEST POP SWAP3 POP POP POP PUSH1 0x40 MLOAD DUP1 SWAP2 SUB SWAP1 RETURN JUMPDEST PUSH2 0x28A PUSH1 0x4 DUP1 CALLDATASIZE SUB PUSH1 0x40 DUP2 LT ISZERO PUSH2 0x267 JUMPI PUSH1 0x0 DUP1 REVERT JUMPDEST POP PUSH20 0xFFFFFFFFFFFFFFFFFFFFFFFFFFFFFFFFFFFFFFFF DUP2 CALLDATALOAD AND SWAP1 PUSH1 0x20 ADD CALLDATALOAD PUSH2 0x5FE JUMP JUMPDEST PUSH1 0x40 DUP1 MLOAD SWAP2 ISZERO ISZERO DUP3 MSTORE MLOAD SWAP1 DUP2 SWAP1 SUB PUSH1 0x20 ADD SWAP1 RETURN JUMPDEST PUSH2 0x2A6 PUSH2 0x61C JUMP JUMPDEST STOP JUMPDEST PUSH2 0x2B0 PUSH2 0x6DF JUMP JUMPDEST PUSH1 0x40 DUP1 MLOAD SWAP2 DUP3 MSTORE MLOAD SWAP1 DUP2 SWAP1 SUB PUSH1 0x20 ADD SWAP1 RETURN JUMPDEST PUSH2 0x28A PUSH2 0x6E5 JUMP JUMPDEST PUSH2 0x2A6 PUSH2 0x6EE JUMP JUMPDEST PUSH2 0x2B0 PUSH2 0x874 JUMP JUMPDEST PUSH2 0x28A PUSH1 0x4 DUP1 CALLDATASIZE SUB PUSH1 0x60 DUP2 LT ISZERO PUSH2 0x2F0 JUMPI PUSH1 0x0 DUP1 REVERT JUMPDEST POP PUSH20 0xFFFFFFFFFFFFFFFFFFFFFFFFFFFFFFFFFFFFFFFF DUP2 CALLDATALOAD DUP2 AND SWAP2 PUSH1 0x20 DUP2 ADD CALLDATALOAD SWAP1 SWAP2 AND SWAP1 PUSH1 0x40 ADD CALLDATALOAD PUSH2 0x87A JUMP JUMPDEST PUSH2 0x2B0 PUSH2 0x921 JUMP JUMPDEST PUSH2 0x32D PUSH2 0x927 JUMP JUMPDEST PUSH1 0x40 DUP1 MLOAD PUSH1 0xFF SWAP1 SWAP3 AND DUP3 MSTORE MLOAD SWAP1 DUP2 SWAP1 SUB PUSH1 0x20 ADD SWAP1 RETURN JUMPDEST PUSH2 0x28A PUSH1 0x4 DUP1 CALLDATASIZE SUB PUSH1 0x40 DUP2 LT ISZERO PUSH2 0x359 JUMPI PUSH1 0x0 DUP1 REVERT JUMPDEST POP PUSH20 0xFFFFFFFFFFFFFFFFFFFFFFFFFFFFFFFFFFFFFFFF DUP2 CALLDATALOAD AND SWAP1 PUSH1 0x20 ADD CALLDATALOAD PUSH2 0x930 JUMP JUMPDEST PUSH2 0x2B0 PUSH2 0x991 JUMP JUMPDEST PUSH2 0x2A6 PUSH2 0x9A3 JUMP JUMPDEST PUSH2 0x2B0 PUSH1 0x4 DUP1 CALLDATASIZE SUB PUSH1 0x20 DUP2 LT ISZERO PUSH2 0x3A2 JUMPI PUSH1 0x0 DUP1 REVERT JUMPDEST POP CALLDATALOAD PUSH20 0xFFFFFFFFFFFFFFFFFFFFFFFFFFFFFFFFFFFFFFFF AND PUSH2 0xA8B JUMP JUMPDEST PUSH2 0x3C7 PUSH2 0xAB3 JUMP JUMPDEST PUSH1 0x40 DUP1 MLOAD PUSH20 0xFFFFFFFFFFFFFFFFFFFFFFFFFFFFFFFFFFFFFFFF SWAP1 SWAP3 AND DUP3 MSTORE MLOAD SWAP1 DUP2 SWAP1 SUB PUSH1 0x20 ADD SWAP1 RETURN JUMPDEST PUSH2 0x3C7 PUSH2 0xACF JUMP JUMPDEST PUSH2 0x1DC PUSH2 0xAEB JUMP JUMPDEST PUSH2 0x28A PUSH1 0x4 DUP1 CALLDATASIZE SUB PUSH1 0x40 DUP2 LT ISZERO PUSH2 0x416 JUMPI PUSH1 0x0 DUP1 REVERT JUMPDEST POP PUSH20 0xFFFFFFFFFFFFFFFFFFFFFFFFFFFFFFFFFFFFFFFF DUP2 CALLDATALOAD AND SWAP1 PUSH1 0x20 ADD CALLDATALOAD PUSH2 0xB6A JUMP JUMPDEST PUSH2 0x28A PUSH1 0x4 DUP1 CALLDATASIZE SUB PUSH1 0x40 DUP2 LT ISZERO PUSH2 0x44F JUMPI PUSH1 0x0 DUP1 REVERT JUMPDEST POP PUSH20 0xFFFFFFFFFFFFFFFFFFFFFFFFFFFFFFFFFFFFFFFF DUP2 CALLDATALOAD AND SWAP1 PUSH1 0x20 ADD CALLDATALOAD PUSH2 0xBE5 JUMP JUMPDEST PUSH2 0x2B0 PUSH2 0xBF9 JUMP JUMPDEST PUSH2 0x2A6 PUSH1 0x4 DUP1 CALLDATASIZE SUB PUSH1 0x20 DUP2 LT ISZERO PUSH2 0x490 JUMPI PUSH1 0x0 DUP1 REVERT JUMPDEST POP CALLDATALOAD PUSH2 0xCA0 JUMP JUMPDEST PUSH2 0x2B0 PUSH2 0xE0E JUMP JUMPDEST PUSH2 0x2A6 PUSH1 0x4 DUP1 CALLDATASIZE SUB PUSH1 0x20 DUP2 LT ISZERO PUSH2 0x4B5 JUMPI PUSH1 0x0 DUP1 REVERT JUMPDEST POP CALLDATALOAD PUSH2 0xE14 JUMP JUMPDEST PUSH2 0x2B0 PUSH1 0x4 DUP1 CALLDATASIZE SUB PUSH1 0x40 DUP2 LT ISZERO PUSH2 0x4D2 JUMPI PUSH1 0x0 DUP1 REVERT JUMPDEST POP PUSH20 0xFFFFFFFFFFFFFFFFFFFFFFFFFFFFFFFFFFFFFFFF DUP2 CALLDATALOAD DUP2 AND SWAP2 PUSH1 0x20 ADD CALLDATALOAD AND PUSH2 0xFC5 JUMP JUMPDEST PUSH2 0x2B0 PUSH2 0xFFD JUMP JUMPDEST PUSH2 0x3C7 PUSH2 0x1003 JUMP JUMPDEST PUSH2 0x2A6 PUSH2 0x1024 JUMP JUMPDEST PUSH2 0x2A6 PUSH1 0x4 DUP1 CALLDATASIZE SUB PUSH1 0x20 DUP2 LT ISZERO PUSH2 0x525 JUMPI PUSH1 0x0 DUP1 REVERT JUMPDEST POP CALLDATALOAD PUSH20 0xFFFFFFFFFFFFFFFFFFFFFFFFFFFFFFFFFFFFFFFF AND PUSH2 0x1134 JUMP JUMPDEST PUSH2 0x3C7 PUSH2 0x11A4 JUMP JUMPDEST PUSH1 0x3 DUP1 SLOAD PUSH1 0x40 DUP1 MLOAD PUSH1 0x20 PUSH1 0x1F PUSH1 0x2 PUSH32 0xFFFFFFFFFFFFFFFFFFFFFFFFFFFFFFFFFFFFFFFFFFFFFFFFFFFFFFFFFFFFFFFF PUSH2 0x100 PUSH1 0x1 DUP9 AND ISZERO MUL ADD SWAP1 SWAP6 AND SWAP5 SWAP1 SWAP5 DIV SWAP4 DUP5 ADD DUP2 SWAP1 DIV DUP2 MUL DUP3 ADD DUP2 ADD SWAP1 SWAP3 MSTORE DUP3 DUP2 MSTORE PUSH1 0x60 SWAP4 SWAP1 SWAP3 SWAP1 SWAP2 DUP4 ADD DUP3 DUP3 DUP1 ISZERO PUSH2 0x5F4 JUMPI DUP1 PUSH1 0x1F LT PUSH2 0x5C9 JUMPI PUSH2 0x100 DUP1 DUP4 SLOAD DIV MUL DUP4 MSTORE SWAP2 PUSH1 0x20 ADD SWAP2 PUSH2 0x5F4 JUMP JUMPDEST DUP3 ADD SWAP2 SWAP1 PUSH1 0x0 MSTORE PUSH1 0x20 PUSH1 0x0 KECCAK256 SWAP1 JUMPDEST DUP2 SLOAD DUP2 MSTORE SWAP1 PUSH1 0x1 ADD SWAP1 PUSH1 0x20 ADD DUP1 DUP4 GT PUSH2 0x5D7 JUMPI DUP3 SWAP1 SUB PUSH1 0x1F AND DUP3 ADD SWAP2 JUMPDEST POP POP POP POP POP SWAP1 POP SWAP1 JUMP JUMPDEST PUSH1 0x0 PUSH2 0x612 PUSH2 0x60B PUSH2 0x11C5 JUMP JUMPDEST DUP5 DUP5 PUSH2 0x11C9 JUMP JUMPDEST POP PUSH1 0x1 JUMPDEST SWAP3 SWAP2 POP POP JUMP JUMPDEST PUSH1 0x6 SLOAD PUSH20 0xFFFFFFFFFFFFFFFFFFFFFFFFFFFFFFFFFFFFFFFF AND CALLER EQ PUSH2 0x640 JUMPI PUSH1 0x0 DUP1 REVERT JUMPDEST PUSH1 0xC SLOAD PUSH1 0xFF AND ISZERO PUSH2 0x6B2 JUMPI PUSH1 0x40 DUP1 MLOAD PUSH32 0x8C379A000000000000000000000000000000000000000000000000000000000 DUP2 MSTORE PUSH1 0x20 PUSH1 0x4 DUP3 ADD MSTORE PUSH1 0x1D PUSH1 0x24 DUP3 ADD MSTORE PUSH32 0x63616E6E6F7420617070726F76653A206C6F616E20617070726F766564000000 PUSH1 0x44 DUP3 ADD MSTORE SWAP1 MLOAD SWAP1 DUP2 SWAP1 SUB PUSH1 0x64 ADD SWAP1 REVERT JUMPDEST PUSH1 0xC DUP1 SLOAD PUSH32 0xFFFFFFFFFFFFFFFFFFFFFFFFFFFFFFFFFFFFFFFFFFFFFFFFFFFFFFFFFFFFFF00 AND PUSH1 0x1 OR SWAP1 SSTORE JUMP JUMPDEST PUSH1 0x2 SLOAD SWAP1 JUMP JUMPDEST PUSH1 0xC SLOAD PUSH1 0xFF AND DUP2 JUMP JUMPDEST PUSH1 0xC SLOAD PUSH1 0xFF AND PUSH2 0x75F JUMPI PUSH1 0x40 DUP1 MLOAD PUSH32 0x8C379A000000000000000000000000000000000000000000000000000000000 DUP2 MSTORE PUSH1 0x20 PUSH1 0x4 DUP3 ADD MSTORE PUSH1 0x19 PUSH1 0x24 DUP3 ADD MSTORE PUSH32 0x63616E6E6F74207061793A206C6F616E20617070726F76656400000000000000 PUSH1 0x44 DUP3 ADD MSTORE SWAP1 MLOAD SWAP1 DUP2 SWAP1 SUB PUSH1 0x64 ADD SWAP1 REVERT JUMPDEST PUSH1 0xC PUSH1 0x1 SWAP1 SLOAD SWAP1 PUSH2 0x100 EXP SWAP1 DIV PUSH20 0xFFFFFFFFFFFFFFFFFFFFFFFFFFFFFFFFFFFFFFFF AND PUSH20 0xFFFFFFFFFFFFFFFFFFFFFFFFFFFFFFFFFFFFFFFF AND PUSH4 0x23B872DD CALLER ADDRESS PUSH2 0x7AA PUSH1 0x8 SLOAD PUSH2 0x1310 JUMP JUMPDEST PUSH1 0x40 MLOAD DUP5 PUSH4 0xFFFFFFFF AND PUSH1 0xE0 SHL DUP2 MSTORE PUSH1 0x4 ADD DUP1 DUP5 PUSH20 0xFFFFFFFFFFFFFFFFFFFFFFFFFFFFFFFFFFFFFFFF AND PUSH20 0xFFFFFFFFFFFFFFFFFFFFFFFFFFFFFFFFFFFFFFFF AND DUP2 MSTORE PUSH1 0x20 ADD DUP4 PUSH20 0xFFFFFFFFFFFFFFFFFFFFFFFFFFFFFFFFFFFFFFFF AND PUSH20 0xFFFFFFFFFFFFFFFFFFFFFFFFFFFFFFFFFFFFFFFF AND DUP2 MSTORE PUSH1 0x20 ADD DUP3 DUP2 MSTORE PUSH1 0x20 ADD SWAP4 POP POP POP POP PUSH1 0x20 PUSH1 0x40 MLOAD DUP1 DUP4 SUB DUP2 PUSH1 0x0 DUP8 DUP1 EXTCODESIZE ISZERO DUP1 ISZERO PUSH2 0x846 JUMPI PUSH1 0x0 DUP1 REVERT JUMPDEST POP GAS CALL ISZERO DUP1 ISZERO PUSH2 0x85A JUMPI RETURNDATASIZE PUSH1 0x0 DUP1 RETURNDATACOPY RETURNDATASIZE PUSH1 0x0 REVERT JUMPDEST POP POP POP POP PUSH1 0x40 MLOAD RETURNDATASIZE PUSH1 0x20 DUP2 LT ISZERO PUSH2 0x870 JUMPI PUSH1 0x0 DUP1 REVERT JUMPDEST POP POP JUMP JUMPDEST PUSH1 0x9 SLOAD DUP2 JUMP JUMPDEST PUSH1 0x0 PUSH2 0x887 DUP5 DUP5 DUP5 PUSH2 0x134F JUMP JUMPDEST PUSH2 0x917 DUP5 PUSH2 0x893 PUSH2 0x11C5 JUMP JUMPDEST PUSH2 0x912 DUP6 PUSH1 0x40 MLOAD DUP1 PUSH1 0x60 ADD PUSH1 0x40 MSTORE DUP1 PUSH1 0x28 DUP2 MSTORE PUSH1 0x20 ADD PUSH2 0x1AE7 PUSH1 0x28 SWAP2 CODECOPY PUSH20 0xFFFFFFFFFFFFFFFFFFFFFFFFFFFFFFFFFFFFFFFF DUP11 AND PUSH1 0x0 SWAP1 DUP2 MSTORE PUSH1 0x1 PUSH1 0x20 MSTORE PUSH1 0x40 DUP2 KECCAK256 SWAP1 PUSH2 0x8DE PUSH2 0x11C5 JUMP JUMPDEST PUSH20 0xFFFFFFFFFFFFFFFFFFFFFFFFFFFFFFFFFFFFFFFF AND DUP2 MSTORE PUSH1 0x20 DUP2 ADD SWAP2 SWAP1 SWAP2 MSTORE PUSH1 0x40 ADD PUSH1 0x0 KECCAK256 SLOAD SWAP2 SWAP1 PUSH4 0xFFFFFFFF PUSH2 0x1520 AND JUMP JUMPDEST PUSH2 0x11C9 JUMP JUMPDEST POP PUSH1 0x1 SWAP4 SWAP3 POP POP POP JUMP JUMPDEST PUSH1 0xA SLOAD DUP2 JUMP JUMPDEST PUSH1 0x5 SLOAD PUSH1 0xFF AND SWAP1 JUMP JUMPDEST PUSH1 0x0 PUSH2 0x612 PUSH2 0x93D PUSH2 0x11C5 JUMP JUMPDEST DUP5 PUSH2 0x912 DUP6 PUSH1 0x1 PUSH1 0x0 PUSH2 0x94E PUSH2 0x11C5 JUMP JUMPDEST PUSH20 0xFFFFFFFFFFFFFFFFFFFFFFFFFFFFFFFFFFFFFFFF SWAP1 DUP2 AND DUP3 MSTORE PUSH1 0x20 DUP1 DUP4 ADD SWAP4 SWAP1 SWAP4 MSTORE PUSH1 0x40 SWAP2 DUP3 ADD PUSH1 0x0 SWAP1 DUP2 KECCAK256 SWAP2 DUP13 AND DUP2 MSTORE SWAP3 MSTORE SWAP1 KECCAK256 SLOAD SWAP1 PUSH4 0xFFFFFFFF PUSH2 0x15D1 AND JUMP JUMPDEST PUSH1 0x0 PUSH2 0x99E PUSH1 0x8 SLOAD PUSH2 0x1310 JUMP JUMPDEST SWAP1 POP SWAP1 JUMP JUMPDEST PUSH1 0x5 SLOAD PUSH2 0x100 SWAP1 DIV PUSH20 0xFFFFFFFFFFFFFFFFFFFFFFFFFFFFFFFFFFFFFFFF AND CALLER EQ PUSH2 0x9CC JUMPI PUSH1 0x0 DUP1 REVERT JUMPDEST PUSH1 0x5 SLOAD PUSH1 0x6 SLOAD PUSH1 0x40 MLOAD PUSH2 0x100 SWAP1 SWAP3 DIV PUSH20 0xFFFFFFFFFFFFFFFFFFFFFFFFFFFFFFFFFFFFFFFF SWAP1 DUP2 AND SWAP3 SWAP2 AND SWAP1 PUSH32 0x8BE0079C531659141344CD1FD0A4F28419497F9722A3DAAFE3B4186F6B6457E0 SWAP1 PUSH1 0x0 SWAP1 LOG3 PUSH1 0x5 DUP1 SLOAD PUSH1 0x6 DUP1 SLOAD PUSH32 0xFFFFFFFFFFFFFFFFFFFFFFFF0000000000000000000000000000000000000000 AND PUSH20 0xFFFFFFFFFFFFFFFFFFFFFFFFFFFFFFFFFFFFFFFF PUSH2 0x100 DUP5 DIV AND OR SWAP1 SSTORE PUSH32 0xFFFFFFFFFFFFFFFFFFFFFF0000000000000000000000000000000000000000FF AND SWAP1 SSTORE JUMP JUMPDEST PUSH20 0xFFFFFFFFFFFFFFFFFFFFFFFFFFFFFFFFFFFFFFFF AND PUSH1 0x0 SWAP1 DUP2 MSTORE PUSH1 0x20 DUP2 SWAP1 MSTORE PUSH1 0x40 SWAP1 KECCAK256 SLOAD SWAP1 JUMP JUMPDEST PUSH1 0x7 SLOAD PUSH20 0xFFFFFFFFFFFFFFFFFFFFFFFFFFFFFFFFFFFFFFFF AND DUP2 JUMP JUMPDEST PUSH1 0x6 SLOAD PUSH20 0xFFFFFFFFFFFFFFFFFFFFFFFFFFFFFFFFFFFFFFFF AND DUP2 JUMP JUMPDEST PUSH1 0x4 DUP1 SLOAD PUSH1 0x40 DUP1 MLOAD PUSH1 0x20 PUSH1 0x1F PUSH1 0x2 PUSH32 0xFFFFFFFFFFFFFFFFFFFFFFFFFFFFFFFFFFFFFFFFFFFFFFFFFFFFFFFFFFFFFFFF PUSH2 0x100 PUSH1 0x1 DUP9 AND ISZERO MUL ADD SWAP1 SWAP6 AND SWAP5 SWAP1 SWAP5 DIV SWAP4 DUP5 ADD DUP2 SWAP1 DIV DUP2 MUL DUP3 ADD DUP2 ADD SWAP1 SWAP3 MSTORE DUP3 DUP2 MSTORE PUSH1 0x60 SWAP4 SWAP1 SWAP3 SWAP1 SWAP2 DUP4 ADD DUP3 DUP3 DUP1 ISZERO PUSH2 0x5F4 JUMPI DUP1 PUSH1 0x1F LT PUSH2 0x5C9 JUMPI PUSH2 0x100 DUP1 DUP4 SLOAD DIV MUL DUP4 MSTORE SWAP2 PUSH1 0x20 ADD SWAP2 PUSH2 0x5F4 JUMP JUMPDEST PUSH1 0x0 PUSH2 0x612 PUSH2 0xB77 PUSH2 0x11C5 JUMP JUMPDEST DUP5 PUSH2 0x912 DUP6 PUSH1 0x40 MLOAD DUP1 PUSH1 0x60 ADD PUSH1 0x40 MSTORE DUP1 PUSH1 0x25 DUP2 MSTORE PUSH1 0x20 ADD PUSH2 0x1B79 PUSH1 0x25 SWAP2 CODECOPY PUSH1 0x1 PUSH1 0x0 PUSH2 0xBA1 PUSH2 0x11C5 JUMP JUMPDEST PUSH20 0xFFFFFFFFFFFFFFFFFFFFFFFFFFFFFFFFFFFFFFFF SWAP1 DUP2 AND DUP3 MSTORE PUSH1 0x20 DUP1 DUP4 ADD SWAP4 SWAP1 SWAP4 MSTORE PUSH1 0x40 SWAP2 DUP3 ADD PUSH1 0x0 SWAP1 DUP2 KECCAK256 SWAP2 DUP14 AND DUP2 MSTORE SWAP3 MSTORE SWAP1 KECCAK256 SLOAD SWAP2 SWAP1 PUSH4 0xFFFFFFFF PUSH2 0x1520 AND JUMP JUMPDEST PUSH1 0x0 PUSH2 0x612 PUSH2 0xBF2 PUSH2 0x11C5 JUMP JUMPDEST DUP5 DUP5 PUSH2 0x134F JUMP JUMPDEST PUSH1 0xC SLOAD PUSH1 0x40 DUP1 MLOAD PUSH32 0x70A0823100000000000000000000000000000000000000000000000000000000 DUP2 MSTORE ADDRESS PUSH1 0x4 DUP3 ADD MSTORE SWAP1 MLOAD PUSH1 0x0 SWAP3 PUSH2 0x100 SWAP1 DIV PUSH20 0xFFFFFFFFFFFFFFFFFFFFFFFFFFFFFFFFFFFFFFFF AND SWAP2 PUSH4 0x70A08231 SWAP2 PUSH1 0x24 DUP1 DUP4 ADD SWAP3 PUSH1 0x20 SWAP3 SWAP2 SWAP1 DUP3 SWAP1 SUB ADD DUP2 DUP7 DUP1 EXTCODESIZE ISZERO DUP1 ISZERO PUSH2 0xC6F JUMPI PUSH1 0x0 DUP1 REVERT JUMPDEST POP GAS STATICCALL ISZERO DUP1 ISZERO PUSH2 0xC83 JUMPI RETURNDATASIZE PUSH1 0x0 DUP1 RETURNDATACOPY RETURNDATASIZE PUSH1 0x0 REVERT JUMPDEST POP POP POP POP PUSH1 0x40 MLOAD RETURNDATASIZE PUSH1 0x20 DUP2 LT ISZERO PUSH2 0xC99 JUMPI PUSH1 0x0 DUP1 REVERT JUMPDEST POP MLOAD SWAP1 POP SWAP1 JUMP JUMPDEST PUSH1 0xC SLOAD PUSH1 0xFF AND ISZERO PUSH2 0xD12 JUMPI PUSH1 0x40 DUP1 MLOAD PUSH32 0x8C379A000000000000000000000000000000000000000000000000000000000 DUP2 MSTORE PUSH1 0x20 PUSH1 0x4 DUP3 ADD MSTORE PUSH1 0x1D PUSH1 0x24 DUP3 ADD MSTORE PUSH32 0x63616E6E6F74206465706F7369743A206C6F616E20617070726F766564000000 PUSH1 0x44 DUP3 ADD MSTORE SWAP1 MLOAD SWAP1 DUP2 SWAP1 SUB PUSH1 0x64 ADD SWAP1 REVERT JUMPDEST PUSH1 0x8 SLOAD PUSH2 0xD2D DUP3 PUSH2 0xD21 PUSH2 0xBF9 JUMP JUMPDEST SWAP1 PUSH4 0xFFFFFFFF PUSH2 0x15D1 AND JUMP JUMPDEST GT ISZERO PUSH2 0xD50 JUMPI PUSH2 0xD4D PUSH2 0xD3E PUSH2 0xBF9 JUMP JUMPDEST PUSH1 0x8 SLOAD SWAP1 PUSH4 0xFFFFFFFF PUSH2 0x164C AND JUMP JUMPDEST SWAP1 POP JUMPDEST PUSH1 0xC SLOAD PUSH1 0x40 DUP1 MLOAD PUSH32 0x23B872DD00000000000000000000000000000000000000000000000000000000 DUP2 MSTORE CALLER PUSH1 0x4 DUP3 ADD MSTORE ADDRESS PUSH1 0x24 DUP3 ADD MSTORE PUSH1 0x44 DUP2 ADD DUP5 SWAP1 MSTORE SWAP1 MLOAD PUSH2 0x100 SWAP1 SWAP3 DIV PUSH20 0xFFFFFFFFFFFFFFFFFFFFFFFFFFFFFFFFFFFFFFFF AND SWAP2 PUSH4 0x23B872DD SWAP2 PUSH1 0x64 DUP1 DUP3 ADD SWAP3 PUSH1 0x20 SWAP3 SWAP1 SWAP2 SWAP1 DUP3 SWAP1 SUB ADD DUP2 PUSH1 0x0 DUP8 DUP1 EXTCODESIZE ISZERO DUP1 ISZERO PUSH2 0xDD4 JUMPI PUSH1 0x0 DUP1 REVERT JUMPDEST POP GAS CALL ISZERO DUP1 ISZERO PUSH2 0xDE8 JUMPI RETURNDATASIZE PUSH1 0x0 DUP1 RETURNDATACOPY RETURNDATASIZE PUSH1 0x0 REVERT JUMPDEST POP POP POP POP PUSH1 0x40 MLOAD RETURNDATASIZE PUSH1 0x20 DUP2 LT ISZERO PUSH2 0xDFE JUMPI PUSH1 0x0 DUP1 REVERT JUMPDEST POP PUSH2 0xE0B SWAP1 POP CALLER DUP3 PUSH2 0x168E JUMP JUMPDEST POP JUMP JUMPDEST PUSH1 0x8 SLOAD DUP2 JUMP JUMPDEST PUSH1 0xB SLOAD TIMESTAMP LT ISZERO PUSH2 0xE85 JUMPI PUSH1 0x40 DUP1 MLOAD PUSH32 0x8C379A000000000000000000000000000000000000000000000000000000000 DUP2 MSTORE PUSH1 0x20 PUSH1 0x4 DUP3 ADD MSTORE PUSH1 0x1C PUSH1 0x24 DUP3 ADD MSTORE PUSH32 0x63616E6E6F742072656465656D3A206265666F72652065787069727900000000 PUSH1 0x44 DUP3 ADD MSTORE SWAP1 MLOAD SWAP1 DUP2 SWAP1 SUB PUSH1 0x64 ADD SWAP1 REVERT JUMPDEST PUSH1 0xC SLOAD PUSH1 0xFF AND PUSH2 0xEF6 JUMPI PUSH1 0x40 DUP1 MLOAD PUSH32 0x8C379A000000000000000000000000000000000000000000000000000000000 DUP2 MSTORE PUSH1 0x20 PUSH1 0x4 DUP3 ADD DUP2 SWAP1 MSTORE PUSH1 0x24 DUP3 ADD MSTORE PUSH32 0x63616E6E6F742072656465656D3A206C6F616E206E6F7420617070726F766564 PUSH1 0x44 DUP3 ADD MSTORE SWAP1 MLOAD SWAP1 DUP2 SWAP1 SUB PUSH1 0x64 ADD SWAP1 REVERT JUMPDEST PUSH2 0xF00 CALLER DUP3 PUSH2 0x17BF JUMP JUMPDEST PUSH1 0xC SLOAD PUSH2 0x100 SWAP1 DIV PUSH20 0xFFFFFFFFFFFFFFFFFFFFFFFFFFFFFFFFFFFFFFFF AND PUSH4 0xA9059CBB CALLER PUSH2 0xF2D DUP5 PUSH2 0x1310 JUMP JUMPDEST PUSH1 0x40 MLOAD DUP4 PUSH4 0xFFFFFFFF AND PUSH1 0xE0 SHL DUP2 MSTORE PUSH1 0x4 ADD DUP1 DUP4 PUSH20 0xFFFFFFFFFFFFFFFFFFFFFFFFFFFFFFFFFFFFFFFF AND PUSH20 0xFFFFFFFFFFFFFFFFFFFFFFFFFFFFFFFFFFFFFFFF AND DUP2 MSTORE PUSH1 0x20 ADD DUP3 DUP2 MSTORE PUSH1 0x20 ADD SWAP3 POP POP POP PUSH1 0x20 PUSH1 0x40 MLOAD DUP1 DUP4 SUB DUP2 PUSH1 0x0 DUP8 DUP1 EXTCODESIZE ISZERO DUP1 ISZERO PUSH2 0xF96 JUMPI PUSH1 0x0 DUP1 REVERT JUMPDEST POP GAS CALL ISZERO DUP1 ISZERO PUSH2 0xFAA JUMPI RETURNDATASIZE PUSH1 0x0 DUP1 RETURNDATACOPY RETURNDATASIZE PUSH1 0x0 REVERT JUMPDEST POP POP POP POP PUSH1 0x40 MLOAD RETURNDATASIZE PUSH1 0x20 DUP2 LT ISZERO PUSH2 0xFC0 JUMPI PUSH1 0x0 DUP1 REVERT JUMPDEST POP POP POP JUMP JUMPDEST PUSH20 0xFFFFFFFFFFFFFFFFFFFFFFFFFFFFFFFFFFFFFFFF SWAP2 DUP3 AND PUSH1 0x0 SWAP1 DUP2 MSTORE PUSH1 0x1 PUSH1 0x20 SWAP1 DUP2 MSTORE PUSH1 0x40 DUP1 DUP4 KECCAK256 SWAP4 SWAP1 SWAP5 AND DUP3 MSTORE SWAP2 SWAP1 SWAP2 MSTORE KECCAK256 SLOAD SWAP1 JUMP JUMPDEST PUSH1 0xB SLOAD DUP2 JUMP JUMPDEST PUSH1 0x5 SLOAD PUSH2 0x100 SWAP1 DIV PUSH20 0xFFFFFFFFFFFFFFFFFFFFFFFFFFFFFFFFFFFFFFFF AND DUP2 JUMP JUMPDEST PUSH1 0x7 SLOAD PUSH20 0xFFFFFFFFFFFFFFFFFFFFFFFFFFFFFFFFFFFFFFFF AND CALLER EQ PUSH2 0x10AA JUMPI PUSH1 0x40 DUP1 MLOAD PUSH32 0x8C379A000000000000000000000000000000000000000000000000000000000 DUP2 MSTORE PUSH1 0x20 PUSH1 0x4 DUP3 ADD MSTORE PUSH1 0xD PUSH1 0x24 DUP3 ADD MSTORE PUSH32 0x6F6E6C7920626F72726F77657200000000000000000000000000000000000000 PUSH1 0x44 DUP3 ADD MSTORE SWAP1 MLOAD SWAP1 DUP2 SWAP1 SUB PUSH1 0x64 ADD SWAP1 REVERT JUMPDEST PUSH1 0xC SLOAD PUSH1 0xFF AND PUSH2 0x111B JUMPI PUSH1 0x40 DUP1 MLOAD PUSH32 0x8C379A000000000000000000000000000000000000000000000000000000000 DUP2 MSTORE PUSH1 0x20 PUSH1 0x4 DUP3 ADD MSTORE PUSH1 0x1A PUSH1 0x24 DUP3 ADD MSTORE PUSH32 0x6D75737420626520617070726F76656420746F20626F72726F77000000000000 PUSH1 0x44 DUP3 ADD MSTORE SWAP1 MLOAD SWAP1 DUP2 SWAP1 SUB PUSH1 0x64 ADD SWAP1 REVERT JUMPDEST PUSH1 0x9 SLOAD PUSH2 0x112F SWAP1 TIMESTAMP SWAP1 PUSH4 0xFFFFFFFF PUSH2 0x15D1 AND JUMP JUMPDEST PUSH1 0xB SSTORE JUMP JUMPDEST PUSH1 0x6 SLOAD PUSH20 0xFFFFFFFFFFFFFFFFFFFFFFFFFFFFFFFFFFFFFFFF AND CALLER EQ PUSH2 0x1158 JUMPI PUSH1 0x0 DUP1 REVERT JUMPDEST PUSH1 0x5 DUP1 SLOAD PUSH20 0xFFFFFFFFFFFFFFFFFFFFFFFFFFFFFFFFFFFFFFFF SWAP1 SWAP3 AND PUSH2 0x100 MUL PUSH32 0xFFFFFFFFFFFFFFFFFFFFFF0000000000000000000000000000000000000000FF SWAP1 SWAP3 AND SWAP2 SWAP1 SWAP2 OR SWAP1 SSTORE JUMP JUMPDEST PUSH1 0xC SLOAD PUSH2 0x100 SWAP1 DIV PUSH20 0xFFFFFFFFFFFFFFFFFFFFFFFFFFFFFFFFFFFFFFFF AND DUP2 JUMP JUMPDEST CALLER SWAP1 JUMP JUMPDEST PUSH20 0xFFFFFFFFFFFFFFFFFFFFFFFFFFFFFFFFFFFFFFFF DUP4 AND PUSH2 0x1235 JUMPI PUSH1 0x40 MLOAD PUSH32 0x8C379A000000000000000000000000000000000000000000000000000000000 DUP2 MSTORE PUSH1 0x4 ADD DUP1 DUP1 PUSH1 0x20 ADD DUP3 DUP2 SUB DUP3 MSTORE PUSH1 0x24 DUP2 MSTORE PUSH1 0x20 ADD DUP1 PUSH2 0x1B55 PUSH1 0x24 SWAP2 CODECOPY PUSH1 0x40 ADD SWAP2 POP POP PUSH1 0x40 MLOAD DUP1 SWAP2 SUB SWAP1 REVERT JUMPDEST PUSH20 0xFFFFFFFFFFFFFFFFFFFFFFFFFFFFFFFFFFFFFFFF DUP3 AND PUSH2 0x12A1 JUMPI PUSH1 0x40 MLOAD PUSH32 0x8C379A000000000000000000000000000000000000000000000000000000000 DUP2 MSTORE PUSH1 0x4 ADD DUP1 DUP1 PUSH1 0x20 ADD DUP3 DUP2 SUB DUP3 MSTORE PUSH1 0x22 DUP2 MSTORE PUSH1 0x20 ADD DUP1 PUSH2 0x1A7E PUSH1 0x22 SWAP2 CODECOPY PUSH1 0x40 ADD SWAP2 POP POP PUSH1 0x40 MLOAD DUP1 SWAP2 SUB SWAP1 REVERT JUMPDEST PUSH20 0xFFFFFFFFFFFFFFFFFFFFFFFFFFFFFFFFFFFFFFFF DUP1 DUP5 AND PUSH1 0x0 DUP2 DUP2 MSTORE PUSH1 0x1 PUSH1 0x20 SWAP1 DUP2 MSTORE PUSH1 0x40 DUP1 DUP4 KECCAK256 SWAP5 DUP8 AND DUP1 DUP5 MSTORE SWAP5 DUP3 MSTORE SWAP2 DUP3 SWAP1 KECCAK256 DUP6 SWAP1 SSTORE DUP2 MLOAD DUP6 DUP2 MSTORE SWAP2 MLOAD PUSH32 0x8C5BE1E5EBEC7D5BD14F71427D1E84F3DD0314C0F7B2291E5B200AC8C7C3B925 SWAP3 DUP2 SWAP1 SUB SWAP1 SWAP2 ADD SWAP1 LOG3 POP POP POP JUMP JUMPDEST PUSH1 0x0 PUSH2 0x616 PUSH2 0x1342 PUSH8 0xDE0B6B3A7640000 PUSH2 0x1336 PUSH1 0xA SLOAD DUP7 PUSH2 0x1909 SWAP1 SWAP2 SWAP1 PUSH4 0xFFFFFFFF AND JUMP JUMPDEST SWAP1 PUSH4 0xFFFFFFFF PUSH2 0x197C AND JUMP JUMPDEST DUP4 SWAP1 PUSH4 0xFFFFFFFF PUSH2 0x15D1 AND JUMP JUMPDEST PUSH20 0xFFFFFFFFFFFFFFFFFFFFFFFFFFFFFFFFFFFFFFFF DUP4 AND PUSH2 0x13BB JUMPI PUSH1 0x40 MLOAD PUSH32 0x8C379A000000000000000000000000000000000000000000000000000000000 DUP2 MSTORE PUSH1 0x4 ADD DUP1 DUP1 PUSH1 0x20 ADD DUP3 DUP2 SUB DUP3 MSTORE PUSH1 0x25 DUP2 MSTORE PUSH1 0x20 ADD DUP1 PUSH2 0x1B30 PUSH1 0x25 SWAP2 CODECOPY PUSH1 0x40 ADD SWAP2 POP POP PUSH1 0x40 MLOAD DUP1 SWAP2 SUB SWAP1 REVERT JUMPDEST PUSH20 0xFFFFFFFFFFFFFFFFFFFFFFFFFFFFFFFFFFFFFFFF DUP3 AND PUSH2 0x1427 JUMPI PUSH1 0x40 MLOAD PUSH32 0x8C379A000000000000000000000000000000000000000000000000000000000 DUP2 MSTORE PUSH1 0x4 ADD DUP1 DUP1 PUSH1 0x20 ADD DUP3 DUP2 SUB DUP3 MSTORE PUSH1 0x23 DUP2 MSTORE PUSH1 0x20 ADD DUP1 PUSH2 0x1A39 PUSH1 0x23 SWAP2 CODECOPY PUSH1 0x40 ADD SWAP2 POP POP PUSH1 0x40 MLOAD DUP1 SWAP2 SUB SWAP1 REVERT JUMPDEST PUSH2 0x1477 DUP2 PUSH1 0x40 MLOAD DUP1 PUSH1 0x60 ADD PUSH1 0x40 MSTORE DUP1 PUSH1 0x26 DUP2 MSTORE PUSH1 0x20 ADD PUSH2 0x1AA0 PUSH1 0x26 SWAP2 CODECOPY PUSH20 0xFFFFFFFFFFFFFFFFFFFFFFFFFFFFFFFFFFFFFFFF DUP7 AND PUSH1 0x0 SWAP1 DUP2 MSTORE PUSH1 0x20 DUP2 SWAP1 MSTORE PUSH1 0x40 SWAP1 KECCAK256 SLOAD SWAP2 SWAP1 PUSH4 0xFFFFFFFF PUSH2 0x1520 AND JUMP JUMPDEST PUSH20 0xFFFFFFFFFFFFFFFFFFFFFFFFFFFFFFFFFFFFFFFF DUP1 DUP6 AND PUSH1 0x0 SWAP1 DUP2 MSTORE PUSH1 0x20 DUP2 SWAP1 MSTORE PUSH1 0x40 DUP1 DUP3 KECCAK256 SWAP4 SWAP1 SWAP4 SSTORE SWAP1 DUP5 AND DUP2 MSTORE KECCAK256 SLOAD PUSH2 0x14B9 SWAP1 DUP3 PUSH4 0xFFFFFFFF PUSH2 0x15D1 AND JUMP JUMPDEST PUSH20 0xFFFFFFFFFFFFFFFFFFFFFFFFFFFFFFFFFFFFFFFF DUP1 DUP5 AND PUSH1 0x0 DUP2 DUP2 MSTORE PUSH1 0x20 DUP2 DUP2 MSTORE PUSH1 0x40 SWAP2 DUP3 SWAP1 KECCAK256 SWAP5 SWAP1 SWAP5 SSTORE DUP1 MLOAD DUP6 DUP2 MSTORE SWAP1 MLOAD SWAP2 SWAP4 SWAP3 DUP8 AND SWAP3 PUSH32 0xDDF252AD1BE2C89B69C2B068FC378DAA952BA7F163C4A11628F55A4DF523B3EF SWAP3 SWAP2 DUP3 SWAP1 SUB ADD SWAP1 LOG3 POP POP POP JUMP JUMPDEST PUSH1 0x0 DUP2 DUP5 DUP5 GT ISZERO PUSH2 0x15C9 JUMPI PUSH1 0x40 MLOAD PUSH32 0x8C379A000000000000000000000000000000000000000000000000000000000 DUP2 MSTORE PUSH1 0x4 ADD DUP1 DUP1 PUSH1 0x20 ADD DUP3 DUP2 SUB DUP3 MSTORE DUP4 DUP2 DUP2 MLOAD DUP2 MSTORE PUSH1 0x20 ADD SWAP2 POP DUP1 MLOAD SWAP1 PUSH1 0x20 ADD SWAP1 DUP1 DUP4 DUP4 PUSH1 0x0 JUMPDEST DUP4 DUP2 LT ISZERO PUSH2 0x158E JUMPI DUP2 DUP2 ADD MLOAD DUP4 DUP3 ADD MSTORE PUSH1 0x20 ADD PUSH2 0x1576 JUMP JUMPDEST POP POP POP POP SWAP1 POP SWAP1 DUP2 ADD SWAP1 PUSH1 0x1F AND DUP1 ISZERO PUSH2 0x15BB JUMPI DUP1 DUP3 SUB DUP1 MLOAD PUSH1 0x1 DUP4 PUSH1 0x20 SUB PUSH2 0x100 EXP SUB NOT AND DUP2 MSTORE PUSH1 0x20 ADD SWAP2 POP JUMPDEST POP SWAP3 POP POP POP PUSH1 0x40 MLOAD DUP1 SWAP2 SUB SWAP1 REVERT JUMPDEST POP POP POP SWAP1 SUB SWAP1 JUMP JUMPDEST PUSH1 0x0 DUP3 DUP3 ADD DUP4 DUP2 LT ISZERO PUSH2 0x1645 JUMPI PUSH1 0x40 DUP1 MLOAD PUSH32 0x8C379A000000000000000000000000000000000000000000000000000000000 DUP2 MSTORE PUSH1 0x20 PUSH1 0x4 DUP3 ADD MSTORE PUSH1 0x1B PUSH1 0x24 DUP3 ADD MSTORE PUSH32 0x536166654D6174683A206164646974696F6E206F766572666C6F770000000000 PUSH1 0x44 DUP3 ADD MSTORE SWAP1 MLOAD SWAP1 DUP2 SWAP1 SUB PUSH1 0x64 ADD SWAP1 REVERT JUMPDEST SWAP4 SWAP3 POP POP POP JUMP JUMPDEST PUSH1 0x0 PUSH2 0x1645 DUP4 DUP4 PUSH1 0x40 MLOAD DUP1 PUSH1 0x40 ADD PUSH1 0x40 MSTORE DUP1 PUSH1 0x1E DUP2 MSTORE PUSH1 0x20 ADD PUSH32 0x536166654D6174683A207375627472616374696F6E206F766572666C6F770000 DUP2 MSTORE POP PUSH2 0x1520 JUMP JUMPDEST PUSH20 0xFFFFFFFFFFFFFFFFFFFFFFFFFFFFFFFFFFFFFFFF DUP3 AND PUSH2 0x1710 JUMPI PUSH1 0x40 DUP1 MLOAD PUSH32 0x8C379A000000000000000000000000000000000000000000000000000000000 DUP2 MSTORE PUSH1 0x20 PUSH1 0x4 DUP3 ADD MSTORE PUSH1 0x1F PUSH1 0x24 DUP3 ADD MSTORE PUSH32 0x45524332303A206D696E7420746F20746865207A65726F206164647265737300 PUSH1 0x44 DUP3 ADD MSTORE SWAP1 MLOAD SWAP1 DUP2 SWAP1 SUB PUSH1 0x64 ADD SWAP1 REVERT JUMPDEST PUSH1 0x2 SLOAD PUSH2 0x1723 SWAP1 DUP3 PUSH4 0xFFFFFFFF PUSH2 0x15D1 AND JUMP JUMPDEST PUSH1 0x2 SSTORE PUSH20 0xFFFFFFFFFFFFFFFFFFFFFFFFFFFFFFFFFFFFFFFF DUP3 AND PUSH1 0x0 SWAP1 DUP2 MSTORE PUSH1 0x20 DUP2 SWAP1 MSTORE PUSH1 0x40 SWAP1 KECCAK256 SLOAD PUSH2 0x175C SWAP1 DUP3 PUSH4 0xFFFFFFFF PUSH2 0x15D1 AND JUMP JUMPDEST PUSH20 0xFFFFFFFFFFFFFFFFFFFFFFFFFFFFFFFFFFFFFFFF DUP4 AND PUSH1 0x0 DUP2 DUP2 MSTORE PUSH1 0x20 DUP2 DUP2 MSTORE PUSH1 0x40 DUP1 DUP4 KECCAK256 SWAP5 SWAP1 SWAP5 SSTORE DUP4 MLOAD DUP6 DUP2 MSTORE SWAP4 MLOAD SWAP3 SWAP4 SWAP2 SWAP3 PUSH32 0xDDF252AD1BE2C89B69C2B068FC378DAA952BA7F163C4A11628F55A4DF523B3EF SWAP3 DUP2 SWAP1 SUB SWAP1 SWAP2 ADD SWAP1 LOG3 POP POP JUMP JUMPDEST PUSH20 0xFFFFFFFFFFFFFFFFFFFFFFFFFFFFFFFFFFFFFFFF DUP3 AND PUSH2 0x182B JUMPI PUSH1 0x40 MLOAD PUSH32 0x8C379A000000000000000000000000000000000000000000000000000000000 DUP2 MSTORE PUSH1 0x4 ADD DUP1 DUP1 PUSH1 0x20 ADD DUP3 DUP2 SUB DUP3 MSTORE PUSH1 0x21 DUP2 MSTORE PUSH1 0x20 ADD DUP1 PUSH2 0x1B0F PUSH1 0x21 SWAP2 CODECOPY PUSH1 0x40 ADD SWAP2 POP POP PUSH1 0x40 MLOAD DUP1 SWAP2 SUB SWAP1 REVERT JUMPDEST PUSH2 0x187B DUP2 PUSH1 0x40 MLOAD DUP1 PUSH1 0x60 ADD PUSH1 0x40 MSTORE DUP1 PUSH1 0x22 DUP2 MSTORE PUSH1 0x20 ADD PUSH2 0x1A5C PUSH1 0x22 SWAP2 CODECOPY PUSH20 0xFFFFFFFFFFFFFFFFFFFFFFFFFFFFFFFFFFFFFFFF DUP6 AND PUSH1 0x0 SWAP1 DUP2 MSTORE PUSH1 0x20 DUP2 SWAP1 MSTORE PUSH1 0x40 SWAP1 KECCAK256 SLOAD SWAP2 SWAP1 PUSH4 0xFFFFFFFF PUSH2 0x1520 AND JUMP JUMPDEST PUSH20 0xFFFFFFFFFFFFFFFFFFFFFFFFFFFFFFFFFFFFFFFF DUP4 AND PUSH1 0x0 SWAP1 DUP2 MSTORE PUSH1 0x20 DUP2 SWAP1 MSTORE PUSH1 0x40 SWAP1 KECCAK256 SSTORE PUSH1 0x2 SLOAD PUSH2 0x18B4 SWAP1 DUP3 PUSH4 0xFFFFFFFF PUSH2 0x164C AND JUMP JUMPDEST PUSH1 0x2 SSTORE PUSH1 0x40 DUP1 MLOAD DUP3 DUP2 MSTORE SWAP1 MLOAD PUSH1 0x0 SWAP2 PUSH20 0xFFFFFFFFFFFFFFFFFFFFFFFFFFFFFFFFFFFFFFFF DUP6 AND SWAP2 PUSH32 0xDDF252AD1BE2C89B69C2B068FC378DAA952BA7F163C4A11628F55A4DF523B3EF SWAP2 DUP2 SWAP1 SUB PUSH1 0x20 ADD SWAP1 LOG3 POP POP JUMP JUMPDEST PUSH1 0x0 DUP3 PUSH2 0x1918 JUMPI POP PUSH1 0x0 PUSH2 0x616 JUMP JUMPDEST DUP3 DUP3 MUL DUP3 DUP5 DUP3 DUP2 PUSH2 0x1925 JUMPI INVALID JUMPDEST DIV EQ PUSH2 0x1645 JUMPI PUSH1 0x40 MLOAD PUSH32 0x8C379A000000000000000000000000000000000000000000000000000000000 DUP2 MSTORE PUSH1 0x4 ADD DUP1 DUP1 PUSH1 0x20 ADD DUP3 DUP2 SUB DUP3 MSTORE PUSH1 0x21 DUP2 MSTORE PUSH1 0x20 ADD DUP1 PUSH2 0x1AC6 PUSH1 0x21 SWAP2 CODECOPY PUSH1 0x40 ADD SWAP2 POP POP PUSH1 0x40 MLOAD DUP1 SWAP2 SUB SWAP1 REVERT JUMPDEST PUSH1 0x0 PUSH2 0x1645 DUP4 DUP4 PUSH1 0x40 MLOAD DUP1 PUSH1 0x40 ADD PUSH1 0x40 MSTORE DUP1 PUSH1 0x1A DUP2 MSTORE PUSH1 0x20 ADD PUSH32 0x536166654D6174683A206469766973696F6E206279207A65726F000000000000 DUP2 MSTORE POP PUSH1 0x0 DUP2 DUP4 PUSH2 0x1A22 JUMPI PUSH1 0x40 MLOAD PUSH32 0x8C379A000000000000000000000000000000000000000000000000000000000 DUP2 MSTORE PUSH1 0x20 PUSH1 0x4 DUP3 ADD DUP2 DUP2 MSTORE DUP4 MLOAD PUSH1 0x24 DUP5 ADD MSTORE DUP4 MLOAD SWAP1 SWAP3 DUP4 SWAP3 PUSH1 0x44 SWAP1 SWAP2 ADD SWAP2 SWAP1 DUP6 ADD SWAP1 DUP1 DUP4 DUP4 PUSH1 0x0 DUP4 ISZERO PUSH2 0x158E JUMPI DUP2 DUP2 ADD MLOAD DUP4 DUP3 ADD MSTORE PUSH1 0x20 ADD PUSH2 0x1576 JUMP JUMPDEST POP PUSH1 0x0 DUP4 DUP6 DUP2 PUSH2 0x1A2E JUMPI INVALID JUMPDEST DIV SWAP6 SWAP5 POP POP POP POP POP JUMP INVALID GASLIMIT MSTORE NUMBER ORIGIN ADDRESS GASPRICE KECCAK256 PUSH21 0x72616E7366657220746F20746865207A65726F2061 PUSH5 0x6472657373 GASLIMIT MSTORE NUMBER ORIGIN ADDRESS GASPRICE KECCAK256 PUSH3 0x75726E KECCAK256 PUSH2 0x6D6F PUSH22 0x6E7420657863656564732062616C616E636545524332 ADDRESS GASPRICE KECCAK256 PUSH2 0x7070 PUSH19 0x6F766520746F20746865207A65726F20616464 PUSH19 0x65737345524332303A207472616E7366657220 PUSH2 0x6D6F PUSH22 0x6E7420657863656564732062616C616E636553616665 0x4D PUSH2 0x7468 GASPRICE KECCAK256 PUSH14 0x756C7469706C69636174696F6E20 PUSH16 0x766572666C6F7745524332303A207472 PUSH2 0x6E73 PUSH7 0x657220616D6F75 PUSH15 0x74206578636565647320616C6C6F77 PUSH2 0x6E63 PUSH6 0x45524332303A KECCAK256 PUSH3 0x75726E KECCAK256 PUSH7 0x726F6D20746865 KECCAK256 PUSH27 0x65726F206164647265737345524332303A207472616E7366657220 PUSH7 0x726F6D20746865 KECCAK256 PUSH27 0x65726F206164647265737345524332303A20617070726F76652066 PUSH19 0x6F6D20746865207A65726F2061646472657373 GASLIMIT MSTORE NUMBER ORIGIN ADDRESS GASPRICE KECCAK256 PUSH5 0x6563726561 PUSH20 0x656420616C6C6F77616E63652062656C6F77207A PUSH6 0x726FA2646970 PUSH7 0x735822122074CF 0x48 NOT 0xE0 DUP8 0x28 SWAP16 CALLDATACOPY PUSH7 0x32A80FC22A832C PUSH26 0x57BE708887DBEC18EB9DC8A9F86B64736F6C634300060A003300 "
    }
  }
}